{
  "abi": [
    {
      "inputs": [
        {
          "internalType": "address",
          "name": "_dappTokenAddress",
          "type": "address"
        }
      ],
      "stateMutability": "nonpayable",
      "type": "constructor"
    },
    {
      "anonymous": false,
      "inputs": [
        {
          "indexed": true,
          "internalType": "address",
          "name": "previousOwner",
          "type": "address"
        },
        {
          "indexed": true,
          "internalType": "address",
          "name": "newOwner",
          "type": "address"
        }
      ],
      "name": "OwnershipTransferred",
      "type": "event"
    },
    {
      "inputs": [
        {
          "internalType": "address",
          "name": "_token",
          "type": "address"
        }
      ],
      "name": "addAllowedTokens",
      "outputs": [],
      "stateMutability": "nonpayable",
      "type": "function"
    },
    {
      "inputs": [
        {
          "internalType": "uint256",
          "name": "",
          "type": "uint256"
        }
      ],
      "name": "allowedTokens",
      "outputs": [
        {
          "internalType": "address",
          "name": "",
          "type": "address"
        }
      ],
      "stateMutability": "view",
      "type": "function"
    },
    {
      "inputs": [],
      "name": "dappToken",
      "outputs": [
        {
          "internalType": "contract IERC20",
          "name": "",
          "type": "address"
        }
      ],
      "stateMutability": "view",
      "type": "function"
    },
    {
      "inputs": [
        {
          "internalType": "address",
          "name": "_token",
          "type": "address"
        }
      ],
      "name": "getTokenValue",
      "outputs": [
        {
          "internalType": "uint256",
          "name": "",
          "type": "uint256"
        },
        {
          "internalType": "uint256",
          "name": "",
          "type": "uint256"
        }
      ],
      "stateMutability": "view",
      "type": "function"
    },
    {
      "inputs": [
        {
          "internalType": "address",
          "name": "_user",
          "type": "address"
        },
        {
          "internalType": "address",
          "name": "_token",
          "type": "address"
        }
      ],
      "name": "getUserSingleTokenValue",
      "outputs": [
        {
          "internalType": "uint256",
          "name": "",
          "type": "uint256"
        }
      ],
      "stateMutability": "view",
      "type": "function"
    },
    {
      "inputs": [
        {
          "internalType": "address",
          "name": "_user",
          "type": "address"
        }
      ],
      "name": "getUserTotalValue",
      "outputs": [
        {
          "internalType": "uint256",
          "name": "",
          "type": "uint256"
        }
      ],
      "stateMutability": "view",
      "type": "function"
    },
    {
      "inputs": [],
      "name": "issueTokens",
      "outputs": [],
      "stateMutability": "nonpayable",
      "type": "function"
    },
    {
      "inputs": [],
      "name": "owner",
      "outputs": [
        {
          "internalType": "address",
          "name": "",
          "type": "address"
        }
      ],
      "stateMutability": "view",
      "type": "function"
    },
    {
      "inputs": [],
      "name": "renounceOwnership",
      "outputs": [],
      "stateMutability": "nonpayable",
      "type": "function"
    },
    {
      "inputs": [
        {
          "internalType": "address",
          "name": "_token",
          "type": "address"
        },
        {
          "internalType": "address",
          "name": "_priceFeed",
          "type": "address"
        }
      ],
      "name": "setPriceFeedContract",
      "outputs": [],
      "stateMutability": "nonpayable",
      "type": "function"
    },
    {
      "inputs": [
        {
          "internalType": "uint256",
          "name": "_amount",
          "type": "uint256"
        },
        {
          "internalType": "address",
          "name": "_token",
          "type": "address"
        }
      ],
      "name": "stakeTokens",
      "outputs": [],
      "stateMutability": "nonpayable",
      "type": "function"
    },
    {
      "inputs": [
        {
          "internalType": "uint256",
          "name": "",
          "type": "uint256"
        }
      ],
      "name": "stakers",
      "outputs": [
        {
          "internalType": "address",
          "name": "",
          "type": "address"
        }
      ],
      "stateMutability": "view",
      "type": "function"
    },
    {
      "inputs": [
        {
          "internalType": "address",
          "name": "",
          "type": "address"
        },
        {
          "internalType": "address",
          "name": "",
          "type": "address"
        }
      ],
      "name": "stakingBalance",
      "outputs": [
        {
          "internalType": "uint256",
          "name": "",
          "type": "uint256"
        }
      ],
      "stateMutability": "view",
      "type": "function"
    },
    {
      "inputs": [
        {
          "internalType": "address",
          "name": "_token",
          "type": "address"
        }
      ],
      "name": "tokenIsAllowed",
      "outputs": [
        {
          "internalType": "bool",
          "name": "",
          "type": "bool"
        }
      ],
      "stateMutability": "nonpayable",
      "type": "function"
    },
    {
      "inputs": [
        {
          "internalType": "address",
          "name": "",
          "type": "address"
        }
      ],
      "name": "tokenPriceFeedMapping",
      "outputs": [
        {
          "internalType": "address",
          "name": "",
          "type": "address"
        }
      ],
      "stateMutability": "view",
      "type": "function"
    },
    {
      "inputs": [
        {
          "internalType": "address",
          "name": "newOwner",
          "type": "address"
        }
      ],
      "name": "transferOwnership",
      "outputs": [],
      "stateMutability": "nonpayable",
      "type": "function"
    },
    {
      "inputs": [
        {
          "internalType": "address",
          "name": "",
          "type": "address"
        }
      ],
      "name": "uniqueTokensStaked",
      "outputs": [
        {
          "internalType": "uint256",
          "name": "",
          "type": "uint256"
        }
      ],
      "stateMutability": "view",
      "type": "function"
    },
    {
      "inputs": [
        {
          "internalType": "address",
          "name": "_token",
          "type": "address"
        }
      ],
      "name": "unstakeTokens",
      "outputs": [],
      "stateMutability": "nonpayable",
      "type": "function"
    }
  ],
  "bytecode": "608060405234801561001057600080fd5b5060405161108e38038061108e83398101604081905261002f916100ad565b6100383361005d565b600680546001600160a01b0319166001600160a01b03929092169190911790556100dd565b600080546001600160a01b038381166001600160a01b0319831681178455604051919092169283917f8be0079c531659141344cd1fd0a4f28419497f9722a3daafe3b4186f6b6457e09190a35050565b6000602082840312156100bf57600080fd5b81516001600160a01b03811681146100d657600080fd5b9392505050565b610fa2806100ec6000396000f3fe608060405234801561001057600080fd5b50600436106101165760003560e01c8063715018a6116100a2578063b83e023411610071578063b83e023414610255578063dd5b846714610275578063f1c5d6c214610298578063f2fde38b146102c0578063fd5e6dd1146102d357600080fd5b8063715018a614610216578063877dd39d1461021e5780638da5cb5b14610231578063af3f5e221461024257600080fd5b806329161a00116100e957806329161a00146101aa5780632d1ad8b8146101d55780635e5f2e26146101e85780635eb186f8146101fb57806360ab58521461020e57600080fd5b80630bea440d1461011b578063171e44ea14610130578063276b11da1461014357806327927b3e14610169575b600080fd5b61012e610129366004610c50565b6102e6565b005b61012e61013e366004610c7c565b6104bd565b610156610151366004610c9e565b610539565b6040519081526020015b60405180910390f35b610192610177366004610c7c565b6003602052600090815260409020546001600160a01b031681565b6040516001600160a01b039091168152602001610160565b6101566101b8366004610c9e565b600160209081526000928352604080842090915290825290205481565b61012e6101e3366004610c7c565b6105c0565b6101926101f6366004610cc8565b6106f0565b600654610192906001600160a01b031681565b61012e61071a565b61012e610817565b61012e61022c366004610c9e565b61084d565b6000546001600160a01b0316610192565b610156610250366004610c7c565b6108a5565b610156610263366004610c7c565b60026020526000908152604090205481565b610288610283366004610c7c565b610966565b6040519015158152602001610160565b6102ab6102a6366004610c7c565b6109d0565b60408051928352602083019190915201610160565b61012e6102ce366004610c7c565b610ad1565b6101926102e1366004610cc8565b610b69565b6000821161033b5760405162461bcd60e51b815260206004820152601a60248201527f416d6f756e74206d757374206265206d6f7265207468616e203000000000000060448201526064015b60405180910390fd5b61034481610966565b6103905760405162461bcd60e51b815260206004820152601e60248201527f546f6b656e206973206e6f742063757272656e746c7920616c6c6f77656400006044820152606401610332565b6040516323b872dd60e01b8152336004820152306024820152604481018390526001600160a01b038216906323b872dd906064016020604051808303816000875af11580156103e3573d6000803e3d6000fd5b505050506040513d601f19601f820116820180604052508101906104079190610ce1565b506104123382610b79565b6001600160a01b0381166000908152600160209081526040808320338452909152902054610441908390610d19565b6001600160a01b0382166000908152600160208181526040808420338552825280842094909455600290529190205414156104b957600480546001810182556000919091527f8a35acfbc15ff81a39ae7d344fd709f28e8600b4aa8c65c6b64bfe7fe36bd19b0180546001600160a01b031916331790555b5050565b6000546001600160a01b031633146104e75760405162461bcd60e51b815260040161033290610d31565b600580546001810182556000919091527f036b6384b5eca791c62761152d0c79bb0604c104a5fb6f4eb0703f3154bb3db00180546001600160a01b0319166001600160a01b0392909216919091179055565b6001600160a01b03821660009081526002602052604081205461055e575060006105ba565b60008061056a846109d0565b909250905061057a81600a610e4a565b6001600160a01b038086166000908152600160209081526040808320938a16835292905220546105ab908490610e56565b6105b59190610e75565b925050505b92915050565b6001600160a01b0381166000908152600160209081526040808320338452909152902054806106315760405162461bcd60e51b815260206004820152601b60248201527f5374616b696e672062616c616e63652063616e6e6f74206265203000000000006044820152606401610332565b60405163a9059cbb60e01b8152336004820152602481018290526001600160a01b0383169063a9059cbb906044016020604051808303816000875af115801561067e573d6000803e3d6000fd5b505050506040513d601f19601f820116820180604052508101906106a29190610ce1565b506001600160a01b038216600090815260016020818152604080842033855282528084208490556002909152909120546106dc9190610e97565b336000908152600260205260409020555050565b6005818154811061070057600080fd5b6000918252602090912001546001600160a01b0316905081565b6000546001600160a01b031633146107445760405162461bcd60e51b815260040161033290610d31565b60005b6004548110156108145760006004828154811061076657610766610eae565b60009182526020822001546001600160a01b03169150610785826108a5565b60065460405163a9059cbb60e01b81526001600160a01b0385811660048301526024820184905292935091169063a9059cbb906044016020604051808303816000875af11580156107da573d6000803e3d6000fd5b505050506040513d601f19601f820116820180604052508101906107fe9190610ce1565b505050808061080c90610ec4565b915050610747565b50565b6000546001600160a01b031633146108415760405162461bcd60e51b815260040161033290610d31565b61084b6000610be4565b565b6000546001600160a01b031633146108775760405162461bcd60e51b815260040161033290610d31565b6001600160a01b03918216600090815260036020526040902080546001600160a01b03191691909216179055565b6001600160a01b03811660009081526002602052604081205481906109035760405162461bcd60e51b8152602060048201526014602482015273139bc81d1bdad95b9cc81cdd185ad959081e595d60621b6044820152606401610332565b60005b60055481101561095f57610941846005838154811061092757610927610eae565b6000918252602090912001546001600160a01b0316610539565b61094b9083610d19565b91508061095781610ec4565b915050610906565b5092915050565b6000805b6005548110156109c757826001600160a01b03166005828154811061099157610991610eae565b6000918252602090912001546001600160a01b031614156109b55750600192915050565b806109bf81610ec4565b91505061096a565b50600092915050565b6001600160a01b03808216600090815260036020526040808220548151633fabe5a360e21b815291519293849391169182918491839163feaf968c9160048082019260a0929091908290030181865afa158015610a31573d6000803e3d6000fd5b505050506040513d601f19601f82011682018060405250810190610a559190610ef9565b5050509150506000826001600160a01b031663313ce5676040518163ffffffff1660e01b8152600401602060405180830381865afa158015610a9b573d6000803e3d6000fd5b505050506040513d601f19601f82011682018060405250810190610abf9190610f49565b919760ff909216965090945050505050565b6000546001600160a01b03163314610afb5760405162461bcd60e51b815260040161033290610d31565b6001600160a01b038116610b605760405162461bcd60e51b815260206004820152602660248201527f4f776e61626c653a206e6577206f776e657220697320746865207a65726f206160448201526564647265737360d01b6064820152608401610332565b61081481610be4565b6004818154811061070057600080fd5b6001600160a01b038082166000908152600160209081526040808320938616835292905220546104b9576001600160a01b038216600090815260026020526040902054610bc7906001610d19565b6001600160a01b0383166000908152600260205260409020555050565b600080546001600160a01b038381166001600160a01b0319831681178455604051919092169283917f8be0079c531659141344cd1fd0a4f28419497f9722a3daafe3b4186f6b6457e09190a35050565b80356001600160a01b0381168114610c4b57600080fd5b919050565b60008060408385031215610c6357600080fd5b82359150610c7360208401610c34565b90509250929050565b600060208284031215610c8e57600080fd5b610c9782610c34565b9392505050565b60008060408385031215610cb157600080fd5b610cba83610c34565b9150610c7360208401610c34565b600060208284031215610cda57600080fd5b5035919050565b600060208284031215610cf357600080fd5b81518015158114610c9757600080fd5b634e487b7160e01b600052601160045260246000fd5b60008219821115610d2c57610d2c610d03565b500190565b6020808252818101527f4f776e61626c653a2063616c6c6572206973206e6f7420746865206f776e6572604082015260600190565b600181815b80851115610da1578160001904821115610d8757610d87610d03565b80851615610d9457918102915b93841c9390800290610d6b565b509250929050565b600082610db8575060016105ba565b81610dc5575060006105ba565b8160018114610ddb5760028114610de557610e01565b60019150506105ba565b60ff841115610df657610df6610d03565b50506001821b6105ba565b5060208310610133831016604e8410600b8410161715610e24575081810a6105ba565b610e2e8383610d66565b8060001904821115610e4257610e42610d03565b029392505050565b6000610c978383610da9565b6000816000190483118215151615610e7057610e70610d03565b500290565b600082610e9257634e487b7160e01b600052601260045260246000fd5b500490565b600082821015610ea957610ea9610d03565b500390565b634e487b7160e01b600052603260045260246000fd5b6000600019821415610ed857610ed8610d03565b5060010190565b805169ffffffffffffffffffff81168114610c4b57600080fd5b600080600080600060a08688031215610f1157600080fd5b610f1a86610edf565b9450602086015193506040860151925060608601519150610f3d60808701610edf565b90509295509295909350565b600060208284031215610f5b57600080fd5b815160ff81168114610c9757600080fdfea2646970667358221220328780150f85c6b251fa8b968938de188893b4cd55b852e3825e3fe1f93b89df64736f6c634300080b0033",
  "bytecodeSha1": "d509d542beb68c34f099ee58e98f4b965336f9bd",
  "compiler": {
    "evm_version": "istanbul",
    "optimizer": {
      "enabled": true,
      "runs": 200
    },
    "version": "0.8.11+commit.d7f03943"
  },
  "contractName": "TokenFarm",
  "language": "Solidity",
  "natspec": {
    "kind": "dev",
    "methods": {
      "owner()": {
        "details": "Returns the address of the current owner."
      },
      "renounceOwnership()": {
        "details": "Leaves the contract without owner. It will not be possible to call `onlyOwner` functions anymore. Can only be called by the current owner. NOTE: Renouncing ownership will leave the contract without an owner, thereby removing any functionality that is only available to the owner."
      },
      "transferOwnership(address)": {
        "details": "Transfers ownership of the contract to a new account (`newOwner`). Can only be called by the current owner."
      }
    },
    "version": 1
  },
  "opcodes": "PUSH1 0x80 PUSH1 0x40 MSTORE CALLVALUE DUP1 ISZERO PUSH2 0x10 JUMPI PUSH1 0x0 DUP1 REVERT JUMPDEST POP PUSH1 0x4 CALLDATASIZE LT PUSH2 0x116 JUMPI PUSH1 0x0 CALLDATALOAD PUSH1 0xE0 SHR DUP1 PUSH4 0x715018A6 GT PUSH2 0xA2 JUMPI DUP1 PUSH4 0xB83E0234 GT PUSH2 0x71 JUMPI DUP1 PUSH4 0xB83E0234 EQ PUSH2 0x255 JUMPI DUP1 PUSH4 0xDD5B8467 EQ PUSH2 0x275 JUMPI DUP1 PUSH4 0xF1C5D6C2 EQ PUSH2 0x298 JUMPI DUP1 PUSH4 0xF2FDE38B EQ PUSH2 0x2C0 JUMPI DUP1 PUSH4 0xFD5E6DD1 EQ PUSH2 0x2D3 JUMPI PUSH1 0x0 DUP1 REVERT JUMPDEST DUP1 PUSH4 0x715018A6 EQ PUSH2 0x216 JUMPI DUP1 PUSH4 0x877DD39D EQ PUSH2 0x21E JUMPI DUP1 PUSH4 0x8DA5CB5B EQ PUSH2 0x231 JUMPI DUP1 PUSH4 0xAF3F5E22 EQ PUSH2 0x242 JUMPI PUSH1 0x0 DUP1 REVERT JUMPDEST DUP1 PUSH4 0x29161A00 GT PUSH2 0xE9 JUMPI DUP1 PUSH4 0x29161A00 EQ PUSH2 0x1AA JUMPI DUP1 PUSH4 0x2D1AD8B8 EQ PUSH2 0x1D5 JUMPI DUP1 PUSH4 0x5E5F2E26 EQ PUSH2 0x1E8 JUMPI DUP1 PUSH4 0x5EB186F8 EQ PUSH2 0x1FB JUMPI DUP1 PUSH4 0x60AB5852 EQ PUSH2 0x20E JUMPI PUSH1 0x0 DUP1 REVERT JUMPDEST DUP1 PUSH4 0xBEA440D EQ PUSH2 0x11B JUMPI DUP1 PUSH4 0x171E44EA EQ PUSH2 0x130 JUMPI DUP1 PUSH4 0x276B11DA EQ PUSH2 0x143 JUMPI DUP1 PUSH4 0x27927B3E EQ PUSH2 0x169 JUMPI JUMPDEST PUSH1 0x0 DUP1 REVERT JUMPDEST PUSH2 0x12E PUSH2 0x129 CALLDATASIZE PUSH1 0x4 PUSH2 0xC50 JUMP JUMPDEST PUSH2 0x2E6 JUMP JUMPDEST STOP JUMPDEST PUSH2 0x12E PUSH2 0x13E CALLDATASIZE PUSH1 0x4 PUSH2 0xC7C JUMP JUMPDEST PUSH2 0x4BD JUMP JUMPDEST PUSH2 0x156 PUSH2 0x151 CALLDATASIZE PUSH1 0x4 PUSH2 0xC9E JUMP JUMPDEST PUSH2 0x539 JUMP JUMPDEST PUSH1 0x40 MLOAD SWAP1 DUP2 MSTORE PUSH1 0x20 ADD JUMPDEST PUSH1 0x40 MLOAD DUP1 SWAP2 SUB SWAP1 RETURN JUMPDEST PUSH2 0x192 PUSH2 0x177 CALLDATASIZE PUSH1 0x4 PUSH2 0xC7C JUMP JUMPDEST PUSH1 0x3 PUSH1 0x20 MSTORE PUSH1 0x0 SWAP1 DUP2 MSTORE PUSH1 0x40 SWAP1 KECCAK256 SLOAD PUSH1 0x1 PUSH1 0x1 PUSH1 0xA0 SHL SUB AND DUP2 JUMP JUMPDEST PUSH1 0x40 MLOAD PUSH1 0x1 PUSH1 0x1 PUSH1 0xA0 SHL SUB SWAP1 SWAP2 AND DUP2 MSTORE PUSH1 0x20 ADD PUSH2 0x160 JUMP JUMPDEST PUSH2 0x156 PUSH2 0x1B8 CALLDATASIZE PUSH1 0x4 PUSH2 0xC9E JUMP JUMPDEST PUSH1 0x1 PUSH1 0x20 SWAP1 DUP2 MSTORE PUSH1 0x0 SWAP3 DUP4 MSTORE PUSH1 0x40 DUP1 DUP5 KECCAK256 SWAP1 SWAP2 MSTORE SWAP1 DUP3 MSTORE SWAP1 KECCAK256 SLOAD DUP2 JUMP JUMPDEST PUSH2 0x12E PUSH2 0x1E3 CALLDATASIZE PUSH1 0x4 PUSH2 0xC7C JUMP JUMPDEST PUSH2 0x5C0 JUMP JUMPDEST PUSH2 0x192 PUSH2 0x1F6 CALLDATASIZE PUSH1 0x4 PUSH2 0xCC8 JUMP JUMPDEST PUSH2 0x6F0 JUMP JUMPDEST PUSH1 0x6 SLOAD PUSH2 0x192 SWAP1 PUSH1 0x1 PUSH1 0x1 PUSH1 0xA0 SHL SUB AND DUP2 JUMP JUMPDEST PUSH2 0x12E PUSH2 0x71A JUMP JUMPDEST PUSH2 0x12E PUSH2 0x817 JUMP JUMPDEST PUSH2 0x12E PUSH2 0x22C CALLDATASIZE PUSH1 0x4 PUSH2 0xC9E JUMP JUMPDEST PUSH2 0x84D JUMP JUMPDEST PUSH1 0x0 SLOAD PUSH1 0x1 PUSH1 0x1 PUSH1 0xA0 SHL SUB AND PUSH2 0x192 JUMP JUMPDEST PUSH2 0x156 PUSH2 0x250 CALLDATASIZE PUSH1 0x4 PUSH2 0xC7C JUMP JUMPDEST PUSH2 0x8A5 JUMP JUMPDEST PUSH2 0x156 PUSH2 0x263 CALLDATASIZE PUSH1 0x4 PUSH2 0xC7C JUMP JUMPDEST PUSH1 0x2 PUSH1 0x20 MSTORE PUSH1 0x0 SWAP1 DUP2 MSTORE PUSH1 0x40 SWAP1 KECCAK256 SLOAD DUP2 JUMP JUMPDEST PUSH2 0x288 PUSH2 0x283 CALLDATASIZE PUSH1 0x4 PUSH2 0xC7C JUMP JUMPDEST PUSH2 0x966 JUMP JUMPDEST PUSH1 0x40 MLOAD SWAP1 ISZERO ISZERO DUP2 MSTORE PUSH1 0x20 ADD PUSH2 0x160 JUMP JUMPDEST PUSH2 0x2AB PUSH2 0x2A6 CALLDATASIZE PUSH1 0x4 PUSH2 0xC7C JUMP JUMPDEST PUSH2 0x9D0 JUMP JUMPDEST PUSH1 0x40 DUP1 MLOAD SWAP3 DUP4 MSTORE PUSH1 0x20 DUP4 ADD SWAP2 SWAP1 SWAP2 MSTORE ADD PUSH2 0x160 JUMP JUMPDEST PUSH2 0x12E PUSH2 0x2CE CALLDATASIZE PUSH1 0x4 PUSH2 0xC7C JUMP JUMPDEST PUSH2 0xAD1 JUMP JUMPDEST PUSH2 0x192 PUSH2 0x2E1 CALLDATASIZE PUSH1 0x4 PUSH2 0xCC8 JUMP JUMPDEST PUSH2 0xB69 JUMP JUMPDEST PUSH1 0x0 DUP3 GT PUSH2 0x33B JUMPI PUSH1 0x40 MLOAD PUSH3 0x461BCD PUSH1 0xE5 SHL DUP2 MSTORE PUSH1 0x20 PUSH1 0x4 DUP3 ADD MSTORE PUSH1 0x1A PUSH1 0x24 DUP3 ADD MSTORE PUSH32 0x416D6F756E74206D757374206265206D6F7265207468616E2030000000000000 PUSH1 0x44 DUP3 ADD MSTORE PUSH1 0x64 ADD JUMPDEST PUSH1 0x40 MLOAD DUP1 SWAP2 SUB SWAP1 REVERT JUMPDEST PUSH2 0x344 DUP2 PUSH2 0x966 JUMP JUMPDEST PUSH2 0x390 JUMPI PUSH1 0x40 MLOAD PUSH3 0x461BCD PUSH1 0xE5 SHL DUP2 MSTORE PUSH1 0x20 PUSH1 0x4 DUP3 ADD MSTORE PUSH1 0x1E PUSH1 0x24 DUP3 ADD MSTORE PUSH32 0x546F6B656E206973206E6F742063757272656E746C7920616C6C6F7765640000 PUSH1 0x44 DUP3 ADD MSTORE PUSH1 0x64 ADD PUSH2 0x332 JUMP JUMPDEST PUSH1 0x40 MLOAD PUSH4 0x23B872DD PUSH1 0xE0 SHL DUP2 MSTORE CALLER PUSH1 0x4 DUP3 ADD MSTORE ADDRESS PUSH1 0x24 DUP3 ADD MSTORE PUSH1 0x44 DUP2 ADD DUP4 SWAP1 MSTORE PUSH1 0x1 PUSH1 0x1 PUSH1 0xA0 SHL SUB DUP3 AND SWAP1 PUSH4 0x23B872DD SWAP1 PUSH1 0x64 ADD PUSH1 0x20 PUSH1 0x40 MLOAD DUP1 DUP4 SUB DUP2 PUSH1 0x0 DUP8 GAS CALL ISZERO DUP1 ISZERO PUSH2 0x3E3 JUMPI RETURNDATASIZE PUSH1 0x0 DUP1 RETURNDATACOPY RETURNDATASIZE PUSH1 0x0 REVERT JUMPDEST POP POP POP POP PUSH1 0x40 MLOAD RETURNDATASIZE PUSH1 0x1F NOT PUSH1 0x1F DUP3 ADD AND DUP3 ADD DUP1 PUSH1 0x40 MSTORE POP DUP2 ADD SWAP1 PUSH2 0x407 SWAP2 SWAP1 PUSH2 0xCE1 JUMP JUMPDEST POP PUSH2 0x412 CALLER DUP3 PUSH2 0xB79 JUMP JUMPDEST PUSH1 0x1 PUSH1 0x1 PUSH1 0xA0 SHL SUB DUP2 AND PUSH1 0x0 SWAP1 DUP2 MSTORE PUSH1 0x1 PUSH1 0x20 SWAP1 DUP2 MSTORE PUSH1 0x40 DUP1 DUP4 KECCAK256 CALLER DUP5 MSTORE SWAP1 SWAP2 MSTORE SWAP1 KECCAK256 SLOAD PUSH2 0x441 SWAP1 DUP4 SWAP1 PUSH2 0xD19 JUMP JUMPDEST PUSH1 0x1 PUSH1 0x1 PUSH1 0xA0 SHL SUB DUP3 AND PUSH1 0x0 SWAP1 DUP2 MSTORE PUSH1 0x1 PUSH1 0x20 DUP2 DUP2 MSTORE PUSH1 0x40 DUP1 DUP5 KECCAK256 CALLER DUP6 MSTORE DUP3 MSTORE DUP1 DUP5 KECCAK256 SWAP5 SWAP1 SWAP5 SSTORE PUSH1 0x2 SWAP1 MSTORE SWAP2 SWAP1 KECCAK256 SLOAD EQ ISZERO PUSH2 0x4B9 JUMPI PUSH1 0x4 DUP1 SLOAD PUSH1 0x1 DUP2 ADD DUP3 SSTORE PUSH1 0x0 SWAP2 SWAP1 SWAP2 MSTORE PUSH32 0x8A35ACFBC15FF81A39AE7D344FD709F28E8600B4AA8C65C6B64BFE7FE36BD19B ADD DUP1 SLOAD PUSH1 0x1 PUSH1 0x1 PUSH1 0xA0 SHL SUB NOT AND CALLER OR SWAP1 SSTORE JUMPDEST POP POP JUMP JUMPDEST PUSH1 0x0 SLOAD PUSH1 0x1 PUSH1 0x1 PUSH1 0xA0 SHL SUB AND CALLER EQ PUSH2 0x4E7 JUMPI PUSH1 0x40 MLOAD PUSH3 0x461BCD PUSH1 0xE5 SHL DUP2 MSTORE PUSH1 0x4 ADD PUSH2 0x332 SWAP1 PUSH2 0xD31 JUMP JUMPDEST PUSH1 0x5 DUP1 SLOAD PUSH1 0x1 DUP2 ADD DUP3 SSTORE PUSH1 0x0 SWAP2 SWAP1 SWAP2 MSTORE PUSH32 0x36B6384B5ECA791C62761152D0C79BB0604C104A5FB6F4EB0703F3154BB3DB0 ADD DUP1 SLOAD PUSH1 0x1 PUSH1 0x1 PUSH1 0xA0 SHL SUB NOT AND PUSH1 0x1 PUSH1 0x1 PUSH1 0xA0 SHL SUB SWAP3 SWAP1 SWAP3 AND SWAP2 SWAP1 SWAP2 OR SWAP1 SSTORE JUMP JUMPDEST PUSH1 0x1 PUSH1 0x1 PUSH1 0xA0 SHL SUB DUP3 AND PUSH1 0x0 SWAP1 DUP2 MSTORE PUSH1 0x2 PUSH1 0x20 MSTORE PUSH1 0x40 DUP2 KECCAK256 SLOAD PUSH2 0x55E JUMPI POP PUSH1 0x0 PUSH2 0x5BA JUMP JUMPDEST PUSH1 0x0 DUP1 PUSH2 0x56A DUP5 PUSH2 0x9D0 JUMP JUMPDEST SWAP1 SWAP3 POP SWAP1 POP PUSH2 0x57A DUP2 PUSH1 0xA PUSH2 0xE4A JUMP JUMPDEST PUSH1 0x1 PUSH1 0x1 PUSH1 0xA0 SHL SUB DUP1 DUP7 AND PUSH1 0x0 SWAP1 DUP2 MSTORE PUSH1 0x1 PUSH1 0x20 SWAP1 DUP2 MSTORE PUSH1 0x40 DUP1 DUP4 KECCAK256 SWAP4 DUP11 AND DUP4 MSTORE SWAP3 SWAP1 MSTORE KECCAK256 SLOAD PUSH2 0x5AB SWAP1 DUP5 SWAP1 PUSH2 0xE56 JUMP JUMPDEST PUSH2 0x5B5 SWAP2 SWAP1 PUSH2 0xE75 JUMP JUMPDEST SWAP3 POP POP POP JUMPDEST SWAP3 SWAP2 POP POP JUMP JUMPDEST PUSH1 0x1 PUSH1 0x1 PUSH1 0xA0 SHL SUB DUP2 AND PUSH1 0x0 SWAP1 DUP2 MSTORE PUSH1 0x1 PUSH1 0x20 SWAP1 DUP2 MSTORE PUSH1 0x40 DUP1 DUP4 KECCAK256 CALLER DUP5 MSTORE SWAP1 SWAP2 MSTORE SWAP1 KECCAK256 SLOAD DUP1 PUSH2 0x631 JUMPI PUSH1 0x40 MLOAD PUSH3 0x461BCD PUSH1 0xE5 SHL DUP2 MSTORE PUSH1 0x20 PUSH1 0x4 DUP3 ADD MSTORE PUSH1 0x1B PUSH1 0x24 DUP3 ADD MSTORE PUSH32 0x5374616B696E672062616C616E63652063616E6E6F7420626520300000000000 PUSH1 0x44 DUP3 ADD MSTORE PUSH1 0x64 ADD PUSH2 0x332 JUMP JUMPDEST PUSH1 0x40 MLOAD PUSH4 0xA9059CBB PUSH1 0xE0 SHL DUP2 MSTORE CALLER PUSH1 0x4 DUP3 ADD MSTORE PUSH1 0x24 DUP2 ADD DUP3 SWAP1 MSTORE PUSH1 0x1 PUSH1 0x1 PUSH1 0xA0 SHL SUB DUP4 AND SWAP1 PUSH4 0xA9059CBB SWAP1 PUSH1 0x44 ADD PUSH1 0x20 PUSH1 0x40 MLOAD DUP1 DUP4 SUB DUP2 PUSH1 0x0 DUP8 GAS CALL ISZERO DUP1 ISZERO PUSH2 0x67E JUMPI RETURNDATASIZE PUSH1 0x0 DUP1 RETURNDATACOPY RETURNDATASIZE PUSH1 0x0 REVERT JUMPDEST POP POP POP POP PUSH1 0x40 MLOAD RETURNDATASIZE PUSH1 0x1F NOT PUSH1 0x1F DUP3 ADD AND DUP3 ADD DUP1 PUSH1 0x40 MSTORE POP DUP2 ADD SWAP1 PUSH2 0x6A2 SWAP2 SWAP1 PUSH2 0xCE1 JUMP JUMPDEST POP PUSH1 0x1 PUSH1 0x1 PUSH1 0xA0 SHL SUB DUP3 AND PUSH1 0x0 SWAP1 DUP2 MSTORE PUSH1 0x1 PUSH1 0x20 DUP2 DUP2 MSTORE PUSH1 0x40 DUP1 DUP5 KECCAK256 CALLER DUP6 MSTORE DUP3 MSTORE DUP1 DUP5 KECCAK256 DUP5 SWAP1 SSTORE PUSH1 0x2 SWAP1 SWAP2 MSTORE SWAP1 SWAP2 KECCAK256 SLOAD PUSH2 0x6DC SWAP2 SWAP1 PUSH2 0xE97 JUMP JUMPDEST CALLER PUSH1 0x0 SWAP1 DUP2 MSTORE PUSH1 0x2 PUSH1 0x20 MSTORE PUSH1 0x40 SWAP1 KECCAK256 SSTORE POP POP JUMP JUMPDEST PUSH1 0x5 DUP2 DUP2 SLOAD DUP2 LT PUSH2 0x700 JUMPI PUSH1 0x0 DUP1 REVERT JUMPDEST PUSH1 0x0 SWAP2 DUP3 MSTORE PUSH1 0x20 SWAP1 SWAP2 KECCAK256 ADD SLOAD PUSH1 0x1 PUSH1 0x1 PUSH1 0xA0 SHL SUB AND SWAP1 POP DUP2 JUMP JUMPDEST PUSH1 0x0 SLOAD PUSH1 0x1 PUSH1 0x1 PUSH1 0xA0 SHL SUB AND CALLER EQ PUSH2 0x744 JUMPI PUSH1 0x40 MLOAD PUSH3 0x461BCD PUSH1 0xE5 SHL DUP2 MSTORE PUSH1 0x4 ADD PUSH2 0x332 SWAP1 PUSH2 0xD31 JUMP JUMPDEST PUSH1 0x0 JUMPDEST PUSH1 0x4 SLOAD DUP2 LT ISZERO PUSH2 0x814 JUMPI PUSH1 0x0 PUSH1 0x4 DUP3 DUP2 SLOAD DUP2 LT PUSH2 0x766 JUMPI PUSH2 0x766 PUSH2 0xEAE JUMP JUMPDEST PUSH1 0x0 SWAP2 DUP3 MSTORE PUSH1 0x20 DUP3 KECCAK256 ADD SLOAD PUSH1 0x1 PUSH1 0x1 PUSH1 0xA0 SHL SUB AND SWAP2 POP PUSH2 0x785 DUP3 PUSH2 0x8A5 JUMP JUMPDEST PUSH1 0x6 SLOAD PUSH1 0x40 MLOAD PUSH4 0xA9059CBB PUSH1 0xE0 SHL DUP2 MSTORE PUSH1 0x1 PUSH1 0x1 PUSH1 0xA0 SHL SUB DUP6 DUP2 AND PUSH1 0x4 DUP4 ADD MSTORE PUSH1 0x24 DUP3 ADD DUP5 SWAP1 MSTORE SWAP3 SWAP4 POP SWAP2 AND SWAP1 PUSH4 0xA9059CBB SWAP1 PUSH1 0x44 ADD PUSH1 0x20 PUSH1 0x40 MLOAD DUP1 DUP4 SUB DUP2 PUSH1 0x0 DUP8 GAS CALL ISZERO DUP1 ISZERO PUSH2 0x7DA JUMPI RETURNDATASIZE PUSH1 0x0 DUP1 RETURNDATACOPY RETURNDATASIZE PUSH1 0x0 REVERT JUMPDEST POP POP POP POP PUSH1 0x40 MLOAD RETURNDATASIZE PUSH1 0x1F NOT PUSH1 0x1F DUP3 ADD AND DUP3 ADD DUP1 PUSH1 0x40 MSTORE POP DUP2 ADD SWAP1 PUSH2 0x7FE SWAP2 SWAP1 PUSH2 0xCE1 JUMP JUMPDEST POP POP POP DUP1 DUP1 PUSH2 0x80C SWAP1 PUSH2 0xEC4 JUMP JUMPDEST SWAP2 POP POP PUSH2 0x747 JUMP JUMPDEST POP JUMP JUMPDEST PUSH1 0x0 SLOAD PUSH1 0x1 PUSH1 0x1 PUSH1 0xA0 SHL SUB AND CALLER EQ PUSH2 0x841 JUMPI PUSH1 0x40 MLOAD PUSH3 0x461BCD PUSH1 0xE5 SHL DUP2 MSTORE PUSH1 0x4 ADD PUSH2 0x332 SWAP1 PUSH2 0xD31 JUMP JUMPDEST PUSH2 0x84B PUSH1 0x0 PUSH2 0xBE4 JUMP JUMPDEST JUMP JUMPDEST PUSH1 0x0 SLOAD PUSH1 0x1 PUSH1 0x1 PUSH1 0xA0 SHL SUB AND CALLER EQ PUSH2 0x877 JUMPI PUSH1 0x40 MLOAD PUSH3 0x461BCD PUSH1 0xE5 SHL DUP2 MSTORE PUSH1 0x4 ADD PUSH2 0x332 SWAP1 PUSH2 0xD31 JUMP JUMPDEST PUSH1 0x1 PUSH1 0x1 PUSH1 0xA0 SHL SUB SWAP2 DUP3 AND PUSH1 0x0 SWAP1 DUP2 MSTORE PUSH1 0x3 PUSH1 0x20 MSTORE PUSH1 0x40 SWAP1 KECCAK256 DUP1 SLOAD PUSH1 0x1 PUSH1 0x1 PUSH1 0xA0 SHL SUB NOT AND SWAP2 SWAP1 SWAP3 AND OR SWAP1 SSTORE JUMP JUMPDEST PUSH1 0x1 PUSH1 0x1 PUSH1 0xA0 SHL SUB DUP2 AND PUSH1 0x0 SWAP1 DUP2 MSTORE PUSH1 0x2 PUSH1 0x20 MSTORE PUSH1 0x40 DUP2 KECCAK256 SLOAD DUP2 SWAP1 PUSH2 0x903 JUMPI PUSH1 0x40 MLOAD PUSH3 0x461BCD PUSH1 0xE5 SHL DUP2 MSTORE PUSH1 0x20 PUSH1 0x4 DUP3 ADD MSTORE PUSH1 0x14 PUSH1 0x24 DUP3 ADD MSTORE PUSH20 0x139BC81D1BDAD95B9CC81CDD185AD959081E595D PUSH1 0x62 SHL PUSH1 0x44 DUP3 ADD MSTORE PUSH1 0x64 ADD PUSH2 0x332 JUMP JUMPDEST PUSH1 0x0 JUMPDEST PUSH1 0x5 SLOAD DUP2 LT ISZERO PUSH2 0x95F JUMPI PUSH2 0x941 DUP5 PUSH1 0x5 DUP4 DUP2 SLOAD DUP2 LT PUSH2 0x927 JUMPI PUSH2 0x927 PUSH2 0xEAE JUMP JUMPDEST PUSH1 0x0 SWAP2 DUP3 MSTORE PUSH1 0x20 SWAP1 SWAP2 KECCAK256 ADD SLOAD PUSH1 0x1 PUSH1 0x1 PUSH1 0xA0 SHL SUB AND PUSH2 0x539 JUMP JUMPDEST PUSH2 0x94B SWAP1 DUP4 PUSH2 0xD19 JUMP JUMPDEST SWAP2 POP DUP1 PUSH2 0x957 DUP2 PUSH2 0xEC4 JUMP JUMPDEST SWAP2 POP POP PUSH2 0x906 JUMP JUMPDEST POP SWAP3 SWAP2 POP POP JUMP JUMPDEST PUSH1 0x0 DUP1 JUMPDEST PUSH1 0x5 SLOAD DUP2 LT ISZERO PUSH2 0x9C7 JUMPI DUP3 PUSH1 0x1 PUSH1 0x1 PUSH1 0xA0 SHL SUB AND PUSH1 0x5 DUP3 DUP2 SLOAD DUP2 LT PUSH2 0x991 JUMPI PUSH2 0x991 PUSH2 0xEAE JUMP JUMPDEST PUSH1 0x0 SWAP2 DUP3 MSTORE PUSH1 0x20 SWAP1 SWAP2 KECCAK256 ADD SLOAD PUSH1 0x1 PUSH1 0x1 PUSH1 0xA0 SHL SUB AND EQ ISZERO PUSH2 0x9B5 JUMPI POP PUSH1 0x1 SWAP3 SWAP2 POP POP JUMP JUMPDEST DUP1 PUSH2 0x9BF DUP2 PUSH2 0xEC4 JUMP JUMPDEST SWAP2 POP POP PUSH2 0x96A JUMP JUMPDEST POP PUSH1 0x0 SWAP3 SWAP2 POP POP JUMP JUMPDEST PUSH1 0x1 PUSH1 0x1 PUSH1 0xA0 SHL SUB DUP1 DUP3 AND PUSH1 0x0 SWAP1 DUP2 MSTORE PUSH1 0x3 PUSH1 0x20 MSTORE PUSH1 0x40 DUP1 DUP3 KECCAK256 SLOAD DUP2 MLOAD PUSH4 0x3FABE5A3 PUSH1 0xE2 SHL DUP2 MSTORE SWAP2 MLOAD SWAP3 SWAP4 DUP5 SWAP4 SWAP2 AND SWAP2 DUP3 SWAP2 DUP5 SWAP2 DUP4 SWAP2 PUSH4 0xFEAF968C SWAP2 PUSH1 0x4 DUP1 DUP3 ADD SWAP3 PUSH1 0xA0 SWAP3 SWAP1 SWAP2 SWAP1 DUP3 SWAP1 SUB ADD DUP2 DUP7 GAS STATICCALL ISZERO DUP1 ISZERO PUSH2 0xA31 JUMPI RETURNDATASIZE PUSH1 0x0 DUP1 RETURNDATACOPY RETURNDATASIZE PUSH1 0x0 REVERT JUMPDEST POP POP POP POP PUSH1 0x40 MLOAD RETURNDATASIZE PUSH1 0x1F NOT PUSH1 0x1F DUP3 ADD AND DUP3 ADD DUP1 PUSH1 0x40 MSTORE POP DUP2 ADD SWAP1 PUSH2 0xA55 SWAP2 SWAP1 PUSH2 0xEF9 JUMP JUMPDEST POP POP POP SWAP2 POP POP PUSH1 0x0 DUP3 PUSH1 0x1 PUSH1 0x1 PUSH1 0xA0 SHL SUB AND PUSH4 0x313CE567 PUSH1 0x40 MLOAD DUP2 PUSH4 0xFFFFFFFF AND PUSH1 0xE0 SHL DUP2 MSTORE PUSH1 0x4 ADD PUSH1 0x20 PUSH1 0x40 MLOAD DUP1 DUP4 SUB DUP2 DUP7 GAS STATICCALL ISZERO DUP1 ISZERO PUSH2 0xA9B JUMPI RETURNDATASIZE PUSH1 0x0 DUP1 RETURNDATACOPY RETURNDATASIZE PUSH1 0x0 REVERT JUMPDEST POP POP POP POP PUSH1 0x40 MLOAD RETURNDATASIZE PUSH1 0x1F NOT PUSH1 0x1F DUP3 ADD AND DUP3 ADD DUP1 PUSH1 0x40 MSTORE POP DUP2 ADD SWAP1 PUSH2 0xABF SWAP2 SWAP1 PUSH2 0xF49 JUMP JUMPDEST SWAP2 SWAP8 PUSH1 0xFF SWAP1 SWAP3 AND SWAP7 POP SWAP1 SWAP5 POP POP POP POP POP JUMP JUMPDEST PUSH1 0x0 SLOAD PUSH1 0x1 PUSH1 0x1 PUSH1 0xA0 SHL SUB AND CALLER EQ PUSH2 0xAFB JUMPI PUSH1 0x40 MLOAD PUSH3 0x461BCD PUSH1 0xE5 SHL DUP2 MSTORE PUSH1 0x4 ADD PUSH2 0x332 SWAP1 PUSH2 0xD31 JUMP JUMPDEST PUSH1 0x1 PUSH1 0x1 PUSH1 0xA0 SHL SUB DUP2 AND PUSH2 0xB60 JUMPI PUSH1 0x40 MLOAD PUSH3 0x461BCD PUSH1 0xE5 SHL DUP2 MSTORE PUSH1 0x20 PUSH1 0x4 DUP3 ADD MSTORE PUSH1 0x26 PUSH1 0x24 DUP3 ADD MSTORE PUSH32 0x4F776E61626C653A206E6577206F776E657220697320746865207A65726F2061 PUSH1 0x44 DUP3 ADD MSTORE PUSH6 0x646472657373 PUSH1 0xD0 SHL PUSH1 0x64 DUP3 ADD MSTORE PUSH1 0x84 ADD PUSH2 0x332 JUMP JUMPDEST PUSH2 0x814 DUP2 PUSH2 0xBE4 JUMP JUMPDEST PUSH1 0x4 DUP2 DUP2 SLOAD DUP2 LT PUSH2 0x700 JUMPI PUSH1 0x0 DUP1 REVERT JUMPDEST PUSH1 0x1 PUSH1 0x1 PUSH1 0xA0 SHL SUB DUP1 DUP3 AND PUSH1 0x0 SWAP1 DUP2 MSTORE PUSH1 0x1 PUSH1 0x20 SWAP1 DUP2 MSTORE PUSH1 0x40 DUP1 DUP4 KECCAK256 SWAP4 DUP7 AND DUP4 MSTORE SWAP3 SWAP1 MSTORE KECCAK256 SLOAD PUSH2 0x4B9 JUMPI PUSH1 0x1 PUSH1 0x1 PUSH1 0xA0 SHL SUB DUP3 AND PUSH1 0x0 SWAP1 DUP2 MSTORE PUSH1 0x2 PUSH1 0x20 MSTORE PUSH1 0x40 SWAP1 KECCAK256 SLOAD PUSH2 0xBC7 SWAP1 PUSH1 0x1 PUSH2 0xD19 JUMP JUMPDEST PUSH1 0x1 PUSH1 0x1 PUSH1 0xA0 SHL SUB DUP4 AND PUSH1 0x0 SWAP1 DUP2 MSTORE PUSH1 0x2 PUSH1 0x20 MSTORE PUSH1 0x40 SWAP1 KECCAK256 SSTORE POP POP JUMP JUMPDEST PUSH1 0x0 DUP1 SLOAD PUSH1 0x1 PUSH1 0x1 PUSH1 0xA0 SHL SUB DUP4 DUP2 AND PUSH1 0x1 PUSH1 0x1 PUSH1 0xA0 SHL SUB NOT DUP4 AND DUP2 OR DUP5 SSTORE PUSH1 0x40 MLOAD SWAP2 SWAP1 SWAP3 AND SWAP3 DUP4 SWAP2 PUSH32 0x8BE0079C531659141344CD1FD0A4F28419497F9722A3DAAFE3B4186F6B6457E0 SWAP2 SWAP1 LOG3 POP POP JUMP JUMPDEST DUP1 CALLDATALOAD PUSH1 0x1 PUSH1 0x1 PUSH1 0xA0 SHL SUB DUP2 AND DUP2 EQ PUSH2 0xC4B JUMPI PUSH1 0x0 DUP1 REVERT JUMPDEST SWAP2 SWAP1 POP JUMP JUMPDEST PUSH1 0x0 DUP1 PUSH1 0x40 DUP4 DUP6 SUB SLT ISZERO PUSH2 0xC63 JUMPI PUSH1 0x0 DUP1 REVERT JUMPDEST DUP3 CALLDATALOAD SWAP2 POP PUSH2 0xC73 PUSH1 0x20 DUP5 ADD PUSH2 0xC34 JUMP JUMPDEST SWAP1 POP SWAP3 POP SWAP3 SWAP1 POP JUMP JUMPDEST PUSH1 0x0 PUSH1 0x20 DUP3 DUP5 SUB SLT ISZERO PUSH2 0xC8E JUMPI PUSH1 0x0 DUP1 REVERT JUMPDEST PUSH2 0xC97 DUP3 PUSH2 0xC34 JUMP JUMPDEST SWAP4 SWAP3 POP POP POP JUMP JUMPDEST PUSH1 0x0 DUP1 PUSH1 0x40 DUP4 DUP6 SUB SLT ISZERO PUSH2 0xCB1 JUMPI PUSH1 0x0 DUP1 REVERT JUMPDEST PUSH2 0xCBA DUP4 PUSH2 0xC34 JUMP JUMPDEST SWAP2 POP PUSH2 0xC73 PUSH1 0x20 DUP5 ADD PUSH2 0xC34 JUMP JUMPDEST PUSH1 0x0 PUSH1 0x20 DUP3 DUP5 SUB SLT ISZERO PUSH2 0xCDA JUMPI PUSH1 0x0 DUP1 REVERT JUMPDEST POP CALLDATALOAD SWAP2 SWAP1 POP JUMP JUMPDEST PUSH1 0x0 PUSH1 0x20 DUP3 DUP5 SUB SLT ISZERO PUSH2 0xCF3 JUMPI PUSH1 0x0 DUP1 REVERT JUMPDEST DUP2 MLOAD DUP1 ISZERO ISZERO DUP2 EQ PUSH2 0xC97 JUMPI PUSH1 0x0 DUP1 REVERT JUMPDEST PUSH4 0x4E487B71 PUSH1 0xE0 SHL PUSH1 0x0 MSTORE PUSH1 0x11 PUSH1 0x4 MSTORE PUSH1 0x24 PUSH1 0x0 REVERT JUMPDEST PUSH1 0x0 DUP3 NOT DUP3 GT ISZERO PUSH2 0xD2C JUMPI PUSH2 0xD2C PUSH2 0xD03 JUMP JUMPDEST POP ADD SWAP1 JUMP JUMPDEST PUSH1 0x20 DUP1 DUP3 MSTORE DUP2 DUP2 ADD MSTORE PUSH32 0x4F776E61626C653A2063616C6C6572206973206E6F7420746865206F776E6572 PUSH1 0x40 DUP3 ADD MSTORE PUSH1 0x60 ADD SWAP1 JUMP JUMPDEST PUSH1 0x1 DUP2 DUP2 JUMPDEST DUP1 DUP6 GT ISZERO PUSH2 0xDA1 JUMPI DUP2 PUSH1 0x0 NOT DIV DUP3 GT ISZERO PUSH2 0xD87 JUMPI PUSH2 0xD87 PUSH2 0xD03 JUMP JUMPDEST DUP1 DUP6 AND ISZERO PUSH2 0xD94 JUMPI SWAP2 DUP2 MUL SWAP2 JUMPDEST SWAP4 DUP5 SHR SWAP4 SWAP1 DUP1 MUL SWAP1 PUSH2 0xD6B JUMP JUMPDEST POP SWAP3 POP SWAP3 SWAP1 POP JUMP JUMPDEST PUSH1 0x0 DUP3 PUSH2 0xDB8 JUMPI POP PUSH1 0x1 PUSH2 0x5BA JUMP JUMPDEST DUP2 PUSH2 0xDC5 JUMPI POP PUSH1 0x0 PUSH2 0x5BA JUMP JUMPDEST DUP2 PUSH1 0x1 DUP2 EQ PUSH2 0xDDB JUMPI PUSH1 0x2 DUP2 EQ PUSH2 0xDE5 JUMPI PUSH2 0xE01 JUMP JUMPDEST PUSH1 0x1 SWAP2 POP POP PUSH2 0x5BA JUMP JUMPDEST PUSH1 0xFF DUP5 GT ISZERO PUSH2 0xDF6 JUMPI PUSH2 0xDF6 PUSH2 0xD03 JUMP JUMPDEST POP POP PUSH1 0x1 DUP3 SHL PUSH2 0x5BA JUMP JUMPDEST POP PUSH1 0x20 DUP4 LT PUSH2 0x133 DUP4 LT AND PUSH1 0x4E DUP5 LT PUSH1 0xB DUP5 LT AND OR ISZERO PUSH2 0xE24 JUMPI POP DUP2 DUP2 EXP PUSH2 0x5BA JUMP JUMPDEST PUSH2 0xE2E DUP4 DUP4 PUSH2 0xD66 JUMP JUMPDEST DUP1 PUSH1 0x0 NOT DIV DUP3 GT ISZERO PUSH2 0xE42 JUMPI PUSH2 0xE42 PUSH2 0xD03 JUMP JUMPDEST MUL SWAP4 SWAP3 POP POP POP JUMP JUMPDEST PUSH1 0x0 PUSH2 0xC97 DUP4 DUP4 PUSH2 0xDA9 JUMP JUMPDEST PUSH1 0x0 DUP2 PUSH1 0x0 NOT DIV DUP4 GT DUP3 ISZERO ISZERO AND ISZERO PUSH2 0xE70 JUMPI PUSH2 0xE70 PUSH2 0xD03 JUMP JUMPDEST POP MUL SWAP1 JUMP JUMPDEST PUSH1 0x0 DUP3 PUSH2 0xE92 JUMPI PUSH4 0x4E487B71 PUSH1 0xE0 SHL PUSH1 0x0 MSTORE PUSH1 0x12 PUSH1 0x4 MSTORE PUSH1 0x24 PUSH1 0x0 REVERT JUMPDEST POP DIV SWAP1 JUMP JUMPDEST PUSH1 0x0 DUP3 DUP3 LT ISZERO PUSH2 0xEA9 JUMPI PUSH2 0xEA9 PUSH2 0xD03 JUMP JUMPDEST POP SUB SWAP1 JUMP JUMPDEST PUSH4 0x4E487B71 PUSH1 0xE0 SHL PUSH1 0x0 MSTORE PUSH1 0x32 PUSH1 0x4 MSTORE PUSH1 0x24 PUSH1 0x0 REVERT JUMPDEST PUSH1 0x0 PUSH1 0x0 NOT DUP3 EQ ISZERO PUSH2 0xED8 JUMPI PUSH2 0xED8 PUSH2 0xD03 JUMP JUMPDEST POP PUSH1 0x1 ADD SWAP1 JUMP JUMPDEST DUP1 MLOAD PUSH10 0xFFFFFFFFFFFFFFFFFFFF DUP2 AND DUP2 EQ PUSH2 0xC4B JUMPI PUSH1 0x0 DUP1 REVERT JUMPDEST PUSH1 0x0 DUP1 PUSH1 0x0 DUP1 PUSH1 0x0 PUSH1 0xA0 DUP7 DUP9 SUB SLT ISZERO PUSH2 0xF11 JUMPI PUSH1 0x0 DUP1 REVERT JUMPDEST PUSH2 0xF1A DUP7 PUSH2 0xEDF JUMP JUMPDEST SWAP5 POP PUSH1 0x20 DUP7 ADD MLOAD SWAP4 POP PUSH1 0x40 DUP7 ADD MLOAD SWAP3 POP PUSH1 0x60 DUP7 ADD MLOAD SWAP2 POP PUSH2 0xF3D PUSH1 0x80 DUP8 ADD PUSH2 0xEDF JUMP JUMPDEST SWAP1 POP SWAP3 SWAP6 POP SWAP3 SWAP6 SWAP1 SWAP4 POP JUMP JUMPDEST PUSH1 0x0 PUSH1 0x20 DUP3 DUP5 SUB SLT ISZERO PUSH2 0xF5B JUMPI PUSH1 0x0 DUP1 REVERT JUMPDEST DUP2 MLOAD PUSH1 0xFF DUP2 AND DUP2 EQ PUSH2 0xC97 JUMPI PUSH1 0x0 DUP1 REVERT INVALID LOG2 PUSH5 0x6970667358 0x22 SLT KECCAK256 ORIGIN DUP8 DUP1 ISZERO 0xF DUP6 0xC6 0xB2 MLOAD STATICCALL DUP12 SWAP7 DUP10 CODESIZE 0xDE XOR DUP9 SWAP4 0xB4 0xCD SSTORE 0xB8 MSTORE 0xE3 DUP3 0x5E EXTCODEHASH 0xE1 0xF9 EXTCODESIZE DUP10 0xDF PUSH5 0x736F6C6343 STOP ADDMOD SIGNEXTEND STOP CALLER ",
  "sha1": "301893f1b4fe5138310e370c179d3148af2afe99",
  "source": "// Aims: stakeTokens, unStake tokens\n//       issueTokens, aaAllowedTokens, getEthValue\n// SPDX-License-Identifier: MIT\npragma solidity ^0.8.0;\n\nimport \"@openzeppelin/contracts/access/Ownable.sol\";\nimport \"@openzeppelin/contracts/token/ERC20/ERC20.sol\";\nimport \"@chainlink/contracts/src/v0.8/interfaces/AggregatorV3Interface.sol\";\n\ncontract TokenFarm is Ownable {\n    //keeping track of the amount of each token user has sent to be staked\n    // mapping token address --> staker address --> amount\n    mapping(address => mapping(address => uint256)) public stakingBalance;\n\n    //determining if user should be added to stake list\n    mapping(address => uint256) public uniqueTokensStaked;\n\n    //token address to its pricefeed address\n    mapping(address => address) public tokenPriceFeedMapping;\n\n    //list of stakers\n    address[] public stakers;\n\n    address[] public allowedTokens;\n\n    IERC20 public dappToken;\n\n    //we need to know the address of the dapp token as soon as token is deployed\n    constructor(address _dappTokenAddress) public {\n        dappToken = IERC20(_dappTokenAddress);\n    }\n\n    // issuing token = token given as reward, giving 1:1 ratio of DappToken return\n    function issueTokens() public onlyOwner {\n        //listing through list of stakers\n        for (\n            uint256 stakersIndex = 0;\n            stakersIndex < stakers.length;\n            stakersIndex++\n        ) {\n            address recipient = stakers[stakersIndex];\n            uint256 userTotalValue = getUserTotalValue(recipient);\n            // send them a token reward, based on user total value worth of tokens locked in\n            dappToken.transfer(recipient, userTotalValue);\n        }\n    }\n\n    //it is more gas efficient to get users to request tokens, here we will auto send them out for better user exp.\n    function getUserTotalValue(address _user) public view returns (uint256) {\n        uint256 totalValue = 0;\n        require(uniqueTokensStaked[_user] > 0, \"No tokens staked yet\");\n        //loop through allowed token to get amount for each user\n        for (\n            uint256 allowedTokensIndex = 0;\n            allowedTokensIndex < allowedTokens.length;\n            allowedTokensIndex++\n        ) {\n            // we need to find the total value of one individual token\n            totalValue =\n                totalValue +\n                getUserSingleTokenValue(\n                    _user,\n                    allowedTokens[allowedTokensIndex]\n                );\n        }\n        return totalValue;\n    }\n\n    //set pricefeed associated w token, map tokens to pricefeed\n    function setPriceFeedContract(address _token, address _priceFeed)\n        public\n        onlyOwner\n    {\n        tokenPriceFeedMapping[_token] = _priceFeed;\n    }\n\n    function getUserSingleTokenValue(address _user, address _token)\n        public\n        view\n        returns (uint256)\n    {\n        // e.g if 1 eth --> $2,000 then return 2000\n        if (uniqueTokensStaked[_user] <= 0) {\n            return 0;\n        }\n        // token value = price of token * stakingBalance[_token][user]\n        (uint256 price, uint256 decimals) = getTokenValue(_token);\n        // if 10eth and eth/usd is 100 then, we have 10 * 100$ worth of eth, devide by decimals\n        return ((stakingBalance[_token][_user] * price) / (10**decimals));\n    }\n\n    function getTokenValue(address _token)\n        public\n        view\n        returns (uint256, uint256)\n    {\n        // working w chainlink pricefeeds, map each token to its associated pricefeed address\n        address priceFeedAddress = tokenPriceFeedMapping[_token];\n        AggregatorV3Interface priceFeed = AggregatorV3Interface(\n            priceFeedAddress\n        );\n        (, int256 price, , , ) = priceFeed.latestRoundData();\n        // we need the decimals of each price so we can match the units, decimals returns uint8 so wrap it\n        uint256 decimals = uint256(priceFeed.decimals());\n        return (uint256(price), decimals);\n    }\n\n    function stakeTokens(uint256 _amount, address _token) public {\n        // which tokens can be added to stake? How much can they stake?\n        require(_amount > 0, \"Amount must be more than 0\");\n        require(tokenIsAllowed(_token), \"Token is not currently allowed\");\n        // calling trasferFrom function from ERC20, wrap token address as erc20 token\n        IERC20(_token).transferFrom(msg.sender, address(this), _amount);\n        //adding user to stake list if new, e.g if user has more than one unique token then they are already in list\n        updateUniqueTokensStaked(msg.sender, _token);\n        //adding to the balance user had previously\n        stakingBalance[_token][msg.sender] =\n            stakingBalance[_token][msg.sender] +\n            _amount;\n        //if user not on list add to stakers list\n        if (uniqueTokensStaked[msg.sender] == 1) {\n            stakers.push(msg.sender);\n        }\n    }\n\n    function unstakeTokens(address _token) public {\n        uint256 balance = stakingBalance[_token][msg.sender];\n        require(balance > 0, \"Staking balance cannot be 0\");\n        //sending tokens back to user(user withdraws)\n        IERC20(_token).transfer(msg.sender, balance);\n        stakingBalance[_token][msg.sender] = 0;\n        uniqueTokensStaked[msg.sender] = uniqueTokensStaked[msg.sender] - 1;\n    }\n\n    function updateUniqueTokensStaked(address _user, address _token) internal {\n        if (stakingBalance[_token][_user] <= 0) {\n            uniqueTokensStaked[_user] = uniqueTokensStaked[_user] + 1;\n        }\n    }\n\n    function addAllowedTokens(address _token) public onlyOwner {\n        allowedTokens.push(_token);\n    }\n\n    function tokenIsAllowed(address _token) public returns (bool) {\n        for (\n            uint256 allowedTokensIndex = 0;\n            allowedTokensIndex < allowedTokens.length;\n            allowedTokensIndex++\n        ) {\n            if (allowedTokens[allowedTokensIndex] == _token) {\n                return true;\n            }\n        }\n        return false;\n    }\n}\n",
  "sourcePath": "contracts/TokenFarm.sol",
  "type": "contract"
}